:020000040800F2
:10000000F81B002001010008BF3200082F2B000858
:10001000BD3200081D0C0008413A00080000000035
:10002000000000000000000000000000EB350008A8
:10003000B90D0008000000001D350008ED3500086E
:100040001B0100081B0100081B0100081B01000820
:100050001B0100081B0100081B0100081B01000810
:100060001B0100081B0100081B0100081B01000800
:100070001B0100081B0100081B0100081B010008F0
:100080001B0100081B0100081B0100081B010008E0
:100090001B0100081B0100081B0100081B010008D0
:1000A0001B0100081B0100081B0100081B010008C0
:1000B00065360008A9360008B53600081B0100089F
:1000C0001B0100081B0100081B0100081B010008A0
:1000D0001B010008FD3900081D3A0008293A0008F4
:1000E0001B0100081B0100081B010008DFF80CD0F1
:1000F00000F0FCFB0048004715470008F81B0020F3
:100100000648804706480047FEE7FEE7FEE7FEE7B1
:10011000FEE7FEE7FEE7FEE7FEE7FEE763360008E0
:10012000ED000008202A04DB203A21FA02F0002129
:10013000704721FA02F3D040C2F1200291400843F7
:100140001946704740EA01039B0703D009E008C93C
:10015000121F08C0042AFAD203E011F8013B00F88C
:10016000013B521EF9D27047D2B201E000F8012BD8
:10017000491EFBD270470022F6E710B513460A4627
:1001800004461946FFF7F0FF204610BD30B505467E
:100190002A460B4612F8010B13F8014B08B1A04296
:1001A000F8D01CB1002802D06D1CF1E7284630BD04
:1001B000CAB2401E10F8011F8A4202D00029F9D1AC
:1001C00000207047421C10F8011B0029FBD1801A47
:1001D000704770B5064603F067FD046805460A22BD
:1001E0000021304600F05BF92C6070BDF0B480EA6D
:1001F0000102D40F4200B2EB410F02D20246084680
:1002000011464A0042D0C30DDDB2C1F3C752AD1A48
:10021000202D35DAC1F3160141F4000204B1524237
:10022000C5F1200602FA06F12A411044B3EBD05F73
:1002300023D0C4B1012DA0EBC35009DCF0BC4FF0BA
:10024000004202EAC352DBB200F5000000F068B9D8
:10025000400000F1807000EBC350A0F1807040EAD4
:10026000D170490009E0490841EAC071A0EBC350D0
:1002700000F50000400800EBC350F0BC00F047B9A7
:100280006142012202EB4101001BF6E7F0BC70471E
:1002900081F00041AAE780F00040A7E780EA010270
:1002A00010B502F00043400022D04A001FD0010EDA
:1002B00001EB1261C0F35600C2F3560240F4000095
:1002C00042F40002A0FB022000047F39140400D095
:1002D000401C50EA124001D44000491EC2B20C0634
:1002E00004EBD010401C4008802A02D003E000201C
:1002F00010BD20F00100002900DA0020184310BDD5
:1003000030B480EA010202F0004530F0004221F0F2
:10031000004013D090B1C30DD40DC2F31601C0F349
:100320001600E41A41F4000140F400027D349142C9
:1003300001D3641C00E04900002C02DA30BC00202C
:1003400070474FF400000023914201D3891A034300
:1003500040084FEA4101F7D151B1914202D14FF02B
:10036000004105E002D24FF0010101E06FF0010110
:1003700003EBC450284430BC00F0C9B8C10F80EA78
:10038000E0700844CA079623002100F0C9B89623FC
:100390000022114600F0C4B820F00040C10DC0F3A7
:1003A000160040F400007F2901DA002070479629EA
:1003B00003DCC1F19601C840704796398840704708
:1003C00000F0004230F000400AD0C10D01F560712C
:1003D000C0F3160042EA0151C208400711437047BA
:1003E0000020014670470000002801DBC0F10040FA
:1003F000002901DBC1F1004181427047002801DB87
:10040000C0F10040002901DBC1F100418842704782
:1004100030B50B46014600202022012409E021FAD4
:1004200002F59D4205D303FA02F5491B04FA02F5D1
:100430002844151EA2F10102F1DC30BD2DE9F05F68
:100440000546002092469B46884606468146402443
:100450001BE02846414647462246FFF763FE5346C7
:100460005A46C01A914110D311461846224600F050
:100470004FFA2D1A67EB01084F4622460120002152
:1004800000F046FA17EB00094E41201EA4F10104CA
:10049000DFDC484631462A464346BDE8F09F2DE959
:1004A000F04791460F4680460446002614F8015B4B
:1004B0002DB100F04FFA0068405DC007F6D12B2D3A
:1004C00002D02D2D18D0641E4A463946204600F031
:1004D00045FA27B13968A14201D1C7F800807105FA
:1004E0004FF002040BD54042002803DD03F0DCFB93
:1004F0000460A007BDE8F08746F48066E4E70028C2
:10050000F8DA03F0D1FB04606FF00040F2E7002955
:10051000A8BF7047401C490008BF20F00100704789
:1005200010B4B0FA80FC00FA0CF050EA010404BFE9
:1005300010BC704749B1CCF1200421FA04F411FA3F
:100540000CF118BF012121430843A3EB0C01CB1D83
:100550004FEA00614FEA102042BF002010BC7047F4
:1005600000EBC35010440029A4BF10BC7047401CCE
:10057000490008BF20F0010010BC70472DE9FE4F74
:10058000804681EA0300C00F0C46009021F0004134
:1005900023F00045B8EB0200A94105D240462146B0
:1005A00090461C460B46024623F00040104347D0BD
:1005B000270DC7F30A00C3F30A510290401A0190B5
:1005C00040286BDAC3F3130040F4801B0098924676
:1005D00020B10023D2EB030A63EB0B0B01985946C1
:1005E000C0F14002504600F093F906460D465046D1
:1005F0005946019A00F09BF910EB08006141002474
:1006000087EA115284EAE7731A4340D0009A62B332
:10061000019A012A4FEA075215DC001B61EB020127
:100620004FF0004202EA0752CDE90042001C41F5BA
:10063000801132462B4600F0EFF903B0BDE8F08F91
:1006400040462146F9E7001B61EB0201001C41F521
:10065000801300185B412018A2F5001747EB030137
:1006600040EAD570B6196D4111E06D084FEA3606C3
:1006700045EAC0754FEA0752001B61EB0201001CFE
:1006800041F5801149084FEA3000001951413246C6
:100690002B4603B0BDE8F04F00F0AFB9009801223F
:1006A00040000023D0EB020263EBE0730098214688
:1006B0004FEAE074B8EB000061EB0401E9E783F076
:1006C00000435BE781F0004158E72DE9FE4F81EAE6
:1006D000030404F0004421F0004100944FF0000BAB
:1006E00023F0004350EA01045ED052EA03045BD0D9
:1006F000C3F30A54C1F30A552C44A4F2F334019411
:10070000A0FB0254C1F3130141F48011C3F313039E
:1007100043F4801301FB024400FB034E840A970A52
:1007200044EA815447EA8357A4FB076802958D0A7F
:1007300005FB07854FEA932C04FB0C542705029D0B
:100740004FEA065847EA1637B5EB08056EEB070C7B
:10075000870E920E47EA811742EA8312A7FB020135
:10076000B6EB0B0164EB00042B0D43EA0C335E186F
:1007700044EB1C50DA465146E7FB0201C5F3130473
:100780004FEA0B3343EA14534FEA0432019C43EA25
:100790000603A4F10C040294009CCDE900B400F01F
:1007A0003BF903B0BDE8F08F00200146F9E72DE9E1
:1007B000F04D81EA030404F0004B21F0004514469B
:1007C0004FF0000A23F0004150EA050220D054EA1D
:1007D00001021DD0C5F30A570246C5F31303C1F346
:1007E0001300C1F30A5640F4801543F48013A7EBBD
:1007F0000608101BD64608F2FD3873EB050002D33D
:1008000008F1010801E092185B41B8F1000F03DA2A
:1008100000200146BDE8F08D00204FF4801106460F
:1008200084460EE0171B73EB050705D3121B63EB21
:10083000050306434CEA010C49084FEA30009218C0
:100840005B4150EA0107EDD152EA030012D082EA7F
:10085000040083EA0501084305D0101BAB4106D212
:100860000122002306E000224FF0004302E06FF077
:10087000010253101AEB06004CEB085110EB0A0072
:1008800041EB0B01BDE8F04D00F0B7B8C1F30A52DF
:10089000C1F3130140F2FF3341F480119A4202DAAE
:1008A00000200146704740F233439A42A2F233429D
:1008B00002DC5242FFF736BC00F02AB830B5041E05
:1008C00071F1000404DB4FF00044404264EB01018D
:1008D000141E73F1000405DB1C464FF00043524226
:1008E00063EB0403994208BF904230BD064C074DAC
:1008F00006E0E06840F0010394E8070098471034F0
:10090000AC42F6D3FFF7F6FBAC510008CC5100081F
:10091000202A04DB203A00FA02F1002070479140BF
:10092000C2F1200320FA03F3194390407047202AB4
:1009300006DBCB17203A41FA02F043EAE07306E007
:1009400041FA02F3D040C2F1200291400843194617
:100950007047000000487047A85100082DE9F05F7B
:1009600082460078002715468B460AF10104B946F5
:10097000302801D09DB113E014F8010B012778282D
:1009800003D0582801D045B10AE00DB1102D07D190
:100990000027102514F8010B02E0082500E00A25C5
:1009A0000026B0460EE005FB080005FB06F1012716
:1009B00001EB10461FFA80F8B6F5803F00D3B94628
:1009C00014F8010B294600F075F80028EBDABBF1AA
:1009D000000F05D00FB1641E00E05446CBF8004074
:1009E000B9F1000F06D003F05FF902210160C81EC3
:1009F000BDE8F09F48EA0640FAE710B5141E73F10F
:100A0000000408DA401C41F1000192185B411A43CE
:100A100001D120F0010010BD2DE9F04D92469B461A
:100A200011B1B1FA81F202E0B0FA80F220329046C0
:100A3000FFF76EFF04460F4640EA0A0041EA0B0149
:100A400053465A46084313D0114653EA010019D0C1
:100A5000C8F140025046FFF765FB05460E4650467A
:100A600059464246FFF754FF084305D0012004E0F1
:100A700020463946BDE8F08D0020054346EAE07681
:100A80002C4337430A986305E40AA0EB08000022D0
:100A9000FD0A44EA47540A3002D500200146E9E73E
:100AA000010510196941DDE9084500196941BDE8F2
:100AB000F04DA2E73A2800D2303820F02002412A37
:100AC00001D3A2F13700884201D34FF0FF307047C5
:100AD00070B58C1810F8015B15F0070301D110F800
:100AE000013B2A1106D110F8012B03E010F8016B2D
:100AF00001F8016B5B1EF9D12B0705D40023521EB0
:100B00000DD401F8013BFAE710F8013BCB1A921C17
:100B100003E013F8015B01F8015B521EF9D5A14215
:100B2000D8D3002070BD70B5044600688168C94301
:100B3000C90716D1816821F00101816000F07CFFB6
:100B4000054609E000F078FF401B022804D9206820
:100B50008068C043C00706D020688068C043C007D3
:100B6000F0D0002070BDA06A40F01000A062E06AE2
:100B700040F00100E062012070BD0000F8B50026E1
:100B80000446009600688168C943C9072CD0816873
:100B900041F001018160154815490068B0FBF1F092
:100BA00000E0401E00900028FBD100F045FF054604
:100BB00015E000F041FF401B022810D92068806832
:100BC000C043C0070BD0A06A40F01000A062E06AEA
:100BD00040F00100E06284F824600120F8BD206844
:100BE0008068C043C007E4D10020F8BD0C0000209D
:100BF00040420F0070B50122074DD402214628461D
:100C000000F015FFC82003F0F9FC21462846BDE896
:100C10007040002200F00BBF00080140FEE700001A
:100C2000F8B522480321214C00780025B0FBF1F2F1
:100C300001FB12001E4F143C4FF48056002834D1A3
:100C4000D4E90210FFF7D0FB11D2FFF7D3FF002247
:100C50003146384600F0EBFE022316A20021282080
:100C6000009502F0E3FB207840F0010002E02078DC
:100C700020F001002070E088A188884211D9FFF798
:100C8000B9FF00223146384600F0D1FE022309A206
:100C900019462820009502F0C9FB207840F0020098
:100CA00002E0207820F002002070F8BD2C00002027
:100CB0000008014020202020202000002DE9F84FCE
:100CC000374F4FF00308202639784025B1FBF8F262
:100CD00008FB12104FF0000AA7F1140901282CD1CB
:100CE0000024201DC2B206EB04100023C0B2194636
:100CF00002F06EFB641CE4B2022CF2D3002405EB7C
:100D000004100023C0B22246194602F061FB641CA5
:100D1000E4B2022CF3D3D9F80800FFF751FB0246E6
:100D20000B4620A1214802F09BFF02231F4A03210A
:100D30002C20CDF800A002F079FB3978B1FBF8F255
:100D400008FB1210022829D10024201DC2B206EB94
:100D500004100023C0B2194602F03AFB641CE4B24E
:100D6000022CF2D30024A01CC2B205EB0410002315
:100D7000C0B2194602F02CFB641CE4B2022CF2D380
:100D8000B9F804200AA1094802F06AFF0223074AC1
:100D900003212C20CDF800A002F048FBBDE8F88F1D
:100DA0002C00002025322E3166560000180A002043
:100DB0002534646D410000007047000038B53948A3
:100DC00003210078B0FBF1F201FB1200002867D18B
:100DD00000F0DCF9334D143DE860802002F07EF82D
:100DE000E880002420070023000E2246194602F066
:100DF000EFFA641CE4B2022CF4D30024A01CC2B2AB
:100E00002007000E0023022102F0E2FA641CE4B283
:100E1000022CF3D3002404F10800C2B22007000E14
:100E20000023042102F0D4FA641CE4B2022CF2D3B1
:100E3000E888FFF7ACFAE9680C46FFF72FFA1A4981
:100E4000FFF75EFA28612046FFF7BAFA02460B4622
:100E500016A1194802F004FF00240223164A214675
:100E60002020009402F0E2FAEA8814A1124802F06D
:100E7000F7FE0223104A19462020009402F0D6FA09
:100E80002869FFF79DFA02460B460EA10A4802F0B8
:100E9000E7FE0223084A04212020009402F0C6FA4B
:100EA00038BD00002C00002000007A443A25322E84
:100EB0003166562000000000180A00203A253464EC
:100EC0006D4100003A25322E3166572000000000A7
:100ED00010B54FF400710348FFF74DF902490020A7
:100EE000088010BD000F00203600002010B5044619
:100EF00000F0B8F858B90AA10B48FFF747F930B12C
:100F00003A21FFF755F9002800D0401C10BD012000
:100F100003F074FB2046641EA4B2E9D210BD0000A9
:100F20004950442C00000000000F002010B5FFF7CE
:100F3000CFFF4FF4FA7402E0204603F05FFBC822B3
:100F400013A114A000F046F80028F5D102E02046D5
:100F500003F054FBC8220EA110A000F03BF80028BB
:100F6000F5D102E0204603F049FBC82208A10FA0FA
:100F700000F030F80028F5D102E0204603F03EFBF7
:100F8000C82203A10DA000F025F80028F5D110BD5E
:100F90004F4B000041540D0A0D00000041542B43FB
:100FA000574D4F44453D320D0A00000041542B433C
:100FB00049504D55583D310D0A00000041542B4316
:100FC00049505345525645523D312C383038300D3A
:100FD0000A00000070B514460D460646FFF7F2F809
:100FE000C1B2304602F010FD0EE000F03BF840B90F
:100FF00029460848FFF7CAF818B1FFF769FF002033
:1010000070BD012003F0FAFA641EA4B2EDD20120F3
:1010100070BD0000000F002030B589B00C460546B9
:10102000FFF756FF224609A1684602F019FE4FF469
:10103000FA720BA16846FFF7CDFF002803D1E1B299
:10104000284602F0E1FC09B030BD000041542B43BA
:10105000495053454E443D302C25640D0A00000094
:101060003E0000000649088830B1064A538898427D
:1010700004D1002008807047012070475080FBE7B2
:10108000360000208407002072B6FEE70C4800B549
:10109000816985B041F0040181618069694600F091
:1010A000040004904FF40060009001200190029031
:1010B00003200390034800F0CFFB05B000BD000003
:1010C0000010024000080140F0B5254C85B0A06931
:1010D00040F00400A061A069012500F00400049024
:1010E000A014CDE900050326CDE9025669461D4846
:1010F00000F0B2FBA06940F00800A061A0691A4F9F
:1011000000F008000490A015CDE90005CDE90256D5
:101110006946384600F0A0FBA06940F00800A061D5
:10112000A069CDE9025600F0080004902015CDE931
:1011300000056946384600F08FFBA06940F00800C2
:10114000A061A069CDE9025600F008000490E01407
:10115000CDE900056946384600F07EFB05B0F0BDDC
:101160000010024000080140000C014010B5064884
:1011700000F090FA4FF0FF31034800F0EDF902481B
:1011800000F014F980B210BDC007002010B5FFF7C1
:10119000EDFFFFF7FCF80D49FFF780F8FFF7FCF8CB
:1011A0000404240C0FD02046FFF7F1F808498842C8
:1011B00000DD04242046FFF7EAF8BDE810403222A3
:1011C000044902F0E5BC002010BD00004108843B4A
:1011D0006666864028110020F8B500260446009671
:1011E00090F8240001280BD0012084F82400204628
:1011F000FFF799FC2046FFF7C1FC070002D050E042
:101200000220F8BDA06A20F4885040F00200A062DD
:10121000022000F0AFFC25490968B1FBF0F0400066
:1012200000E0401E00900028FBD12068816841F05A
:101230000801816000F000FC054608E000F0FCFBBE
:10124000401B0A2803D920688068000715D420684D
:1012500080680007F2D42068816841F00401816051
:1012600000F0EAFB054612E000F0E6FB401B0A280E
:101270000DD920688068400709D5A06A20F00200D7
:1012800040F01000A06284F824600120F8BD2068BE
:1012900080684007E8D4A06A20F0020040F0010016
:1012A000A06284F824603846F8BD00000C000020DD
:1012B000F8B50023009390F824201C46012A12D090
:1012C000012280F824204A681F26072A0DD20568CB
:1012D0006F6B521E02EB82029640B7430E68964037
:1012E00037436F6319E00220F8BD05680D2A0AD262
:1012F0002F6BD21F02EB82029640B7430E689640D6
:1013000037432F6309E0EF6A0D3A02EB8202964001
:10131000B7430E6896403743EF620A6807260568B0
:101320000A2A0AD3EF680A3A02EB42029640B74310
:101330008E6896403743EF6008E02F6902EB420267
:101340009640B7438E68964037432F610A68102A4B
:1013500001D0112A20D1124D0268AA4217D19568F6
:101360002D0219D4956845F4000595600968102987
:1013700012D10C490C4A0968B1FBF2F101EB810171
:10138000490000E0491E00910029FBD104E0816A78
:1013900041F020018162012380F824401846F8BD05
:1013A000002401400C00002040420F000068C06C87
:1013B000704700002DE9F0414FF00006040035466B
:1013C0007DD0A06A002728B9E76284F824702046FF
:1013D00000F07EF82046FFF7A6FBA16AC90600D4FC
:1013E00020B1A06A40F01000A06268E0A16A21F478
:1013F000885141F00201A1626268E169237B0A43DE
:1014000046EA43010A43A1684FF48076B14208D00E
:10141000012906D0002194F814C0BCF1010F02D0BC
:101420000AE03146F7E7F3B1A36A43F02003A36271
:10143000E36A43F00103E3622368D3F804C02CF4A9
:10144000694C4CEA010CC3F804C021688B68DFF8D2
:1014500074C003EA0C0313438B60A168B1420BD044
:10146000012909D00CE0DFF860C0A3690CEB43331D
:101470000B4343F40061DFE7218A0D05A5F58015D4
:101480002168CB6A23F470032B43CB6221688968FF
:101490000E4B1940914208D1E762A16A21F0020186
:1014A00041F00101A162BDE8F081A06A20F00200D4
:1014B00040F01000A062E06A40F00100E06201200C
:1014C000F1E70000FDF7E1FF00E0FFFFFE0E1FFF68
:1014D00010B586B0002100910191029103911A4C40
:1014E00002681A4903231A48A24211D18A6942F4B8
:1014F00000728A618A6902F4007204928A6942F079
:1015000008028A61896901F008010491012113E050
:10151000104CA24215D18A6942F480628A618A69BC
:1015200002F4806204928A6942F008028A61896941
:1015300001F0080104910221CDE90013694600F091
:101540008BF906B010BD00000024014000100240DD
:10155000000C0140002801402DE9F8434FF000083D
:101560000D460446CDF8008000F066FA0746206874
:101570008168C90508D5A06A40F02000A06284F8FF
:1015800024800120BDE8F8834168C90503D4C06AFE
:1015900010F4700F29D0022000F0ECFA3A490968E3
:1015A000B1FBF0F620680169384A11424FEA620245
:1015B0004FEAA2131ED1C1684FEA621C11EA0C0F58
:1015C00018D10169114224D1C068184221D11420D8
:1015D00022E0681C09D025B100F02EFAC01BA842F9
:1015E00003D920680068800724D520680068800738
:1015F000EFD52CE00169114202D1C168194206D031
:10160000026923490A4206D1C068084203D1542026
:1016100002E0292000E0FC204643009815E0681C09
:1016200010D025B100F008FAC01BA8420AD90098D2
:10163000B04207D2A06A40F00400A06284F824807F
:1016400003209FE70098401C0090B042E7D3216838
:101650006FF012000860A06A40F40070A062206879
:101660008068C0F3424007280CD1207B50B9A06AA3
:1016700020F48070A062A06AC00403D4A06A40F085
:101680000100A06200207DE70C0000202449922484
:101690004992240070B5044690F8240001280DD02A
:1016A000012084F824002046FFF768FA01004FF07B
:1016B000000205D084F82420084670BD022070BDC9
:1016C000A06A40F20123984340F48070A0621F4D4D
:1016D00020681F4BA84218D11E6816F4702F14D032
:1016E000A66A46F48016A6621E68760505D5A66A27
:1016F00026F4005646F48056A662A66AF6040AD579
:10170000E66A26F00606E66206E0A66A26F4801679
:10171000A6624668E9E7E26284F824206FF00202DC
:10172000026020688268C2F34242072A05D1A842BB
:1017300008D11A6812F4702F04D0826842F4801223
:101740008260B9E7826842F4A002F9E7002801400C
:101750000424014010B590F821100022022905D080
:101760000421816380F82020012010BD01680B68EE
:1017700023F00E030B6001680B6823F001030B607C
:1017800090F84030012404FA03F1C36B596080F8EB
:10179000214080F82020104610BD000010B590F8C0
:1017A00021100024022903D00421816301243DE09B
:1017B00001680A6822F00E020A6001680A6822F0D5
:1017C00001020A601A4A0168914201D1012121E017
:1017D000174A1432914201D110211BE0144A2832D9
:1017E000914201D1891515E0114A3C32914201D153
:1017F00089140FE00E4A5032914202D14FF48031E9
:1018000008E00B4A6432914202D14FF4801101E0AA
:101810004FF08071064A083A5160012180F821108A
:10182000002180F82010416B01B18847204610BD8F
:101830000800024070B5044600F0FEF80546601C42
:1018400002D004480078044400F0F6F8401BA0429F
:10185000FAD370BD000000202DE9F84FDFF8A49105
:101860000024A9F1040B23464FF00F0809F1040AE4
:10187000ABF1040EBEE00127A7403A40BA4272D154
:10188000DFF884C14D68A5EB0C0665452BD00DDC57
:10189000032D34D005DC35B3012D19D0022D2FD105
:1018A0001BE0112D16D0122D2AD119E0B6F5881F94
:1018B00019D006DCB6F5803F15D0B6F5801F1FD1D4
:1018C00011E0B6F5001F0ED0B6F5041F18D10AE0DE
:1018D000CB6815E0CB681B1D12E0CB6808330FE026
:1018E000CB680C330CE08B682BB1012B4FF0080355
:1018F00003D0476104E0042302E0076100E0002315
:10190000FF2A01D8064601E000F104064FEA8405EB
:1019100001D9A5F12005376808FA05FC27EA0C076C
:1019200003FA05F547EA050737604D68ED0060D515
:10193000364DAE6946F00106AE61AD6924F003068E
:1019400005F001050095324D7719BE68A5072D0FEA
:1019500008FA05FC26EA0C06DFF8B8C0604503D19A
:101960004FF0000C17E044E0DFF8ACC0604502D156
:101970004FF0010C0FE0DFF8A4C0604502D14FF03A
:10198000020C08E0DFF898C0604502D14FF0030C6C
:1019900001E04FF0040C0CFA05FC4CEA060CC7F809
:1019A00008C04D68D9F80060ED024D4601D51643D8
:1019B00000E096432E604D68DAF80060AD025546AF
:1019C00001D5164300E096432E604D68DBF80060B9
:1019D000AD035D4601D5164300E096432E604D6889
:1019E000DEF80060ED03754601D5164300E096432E
:1019F0002E60641C0A6832FA04F57FF43CAFBDE83F
:101A0000F88F00000804014000001110001002408F
:101A10000000014000080140000C0140001001409E
:101A2000001401408068084000D0012070470AB1CE
:101A3000016170470904FBE70148806870470000B6
:101A400000000020024881680278114481607047DC
:101A500000000020074810B5016841F01001016046
:101A6000032000F075F80F2000F006F800F024F8CD
:101A7000002010BD0020024070B50D4D04464FF40B
:101A80007A712878B1FBF0F00A490968B1FBF0F0EF
:101A900000F08AFC48B9102C07D200222146501EC3
:101AA00000F036F800206C6070BD012070BD0000B1
:101AB000000000200C0000200C4808B5816941F0AE
:101AC00001018161816901F001010091C16941F069
:101AD0008051C161C069064900F08050009048689B
:101AE00020F0E06040F08070486008BD00100240C7
:101AF00000000140002809DB00F01F020121914095
:101B00004009800000F1E020C0F80011704700009B
:101B1000F0B40E4B1B68C3F30223C3F10704042C7B
:101B200000D904241D1D072D01D2002300E0DB1E77
:101B3000012606FA04F56D1E0D409D409E40761E5E
:101B4000164045EA0601F0BC02F09EB80CED00E03C
:101B5000064A00F0070110684FF6FF03184040EAFC
:101B60000120034908431060704700000CED00E0BD
:101B70000000FA0510B501460020234C012922D0AF
:101B8000022939D010291DD161682268D20119D5E6
:101B90001E48C1F38342C903805C0AD561681B4AB1
:101BA000C1F34041921E515C194AB2FBF1F1484326
:101BB00001E0184948436168490203D44000032109
:101BC000B0FBF1F010BD226AC2F30121012903D15B
:101BD000920701D5C80310BD022905D1626A920798
:101BE00002D549F6404010BD0329FCD12168890384
:101BF000F9D54FF2244010BD00F02EF96168C1F311
:101C00008131491C4900DBE700100240E44800082C
:101C100000127A0000093D002DE9F84304460078DF
:101C2000344FC00752D0F8690025C00008D4F869C5
:101C300040F08050F861F869012500F08050009074
:101C40002D480168C90511D40168804641F48071AE
:101C50000160FFF7F1FE064604E0FFF7EDFE801B92
:101C6000642822D8D8F80000C005F6D5386A10F4E8
:101C7000407020D0A18801F4407181421BD0386AA5
:101C80001E49012220F440700A6000220A60386276
:101C9000C00710D0FFF7D0FE064641F2883807E0B3
:101CA000FFF7CAFE811B414502D90320BDE8F88336
:101CB000386A8007F4D5386A616820F440700843B8
:101CC00038621DB1F86920F08050F86120788007F3
:101CD00005D57868A16820F44040084378602078F2
:101CE000C00605D57868E16820F480000843786074
:101CF0000020DBE700100240007000404004424238
:101D00002DE9F0470D46040067D0DFF81881D8F8B8
:101D1000000000F00700A8420CD2D8F8001021F013
:101D200007012943C8F80010D8F8000000F00700A8
:101D3000A84252D120683C4E810712D5400703D5F6
:101D4000706840F4E06070602078000703D5706828
:101D500040F4605070607068A16820F0F0000843A3
:101D600070602078C00727D06068012810D03168E3
:101D7000022810D0890700292FDA716821F00301A9
:101D800001437160FFF758FE074641F288390CE0C5
:101D900031688903EFE78901EDE7FFF74DFEC11BCD
:101DA000494502D90320BDE8F0877068616800F0FA
:101DB0000C00B0EB810FF0D1D8F80010404601F0D4
:101DC0000701A9420BD9016821F0070129430160ED
:101DD000006800F00700A84201D00120E3E7207866
:101DE000400705D57068E16820F4E0600843706042
:101DF0002078000706D57068216920F4605040EA19
:101E0000C100706000F038F87168084AC1F303112E
:101E1000515CC8400649086006480068FFF72CFE80
:101E20000020C0E70020024000100240F4480008F3
:101E30000C0000200400002004480549006849689F
:101E4000044AC1F30221515CC84070470C000020D5
:101E50000010024004490008044805490068496828
:101E6000044AC1F3C221515CC84070470C000020F5
:101E700000100240044900080E4B59680E4801F05A
:101E80000C02042A11D0082A0FD10C48C1F3834256
:101E9000C903805C0AD55968084AC1F34041921EC3
:101EA000515C054A5043B0FBF1F070470449484388
:101EB000704700000010024000127A00D24800086B
:101EC00000093D002DE9F84F04006FD02078BE4D89
:101ED000C00747D06868C0F38100012807D0686850
:101EE000C0F38100022809D16868C00306D52868BC
:101EF000800337D560680028E7D033E06068B0F52C
:101F0000803F0BD010B1B0F5A02F11D0286820F47D
:101F100080302860286820F4802002E0286840F49F
:101F200080302860606888B1FFF786FD064609E0CA
:101F3000286840F480202860F0E7FFF77DFD801BD3
:101F4000642873D828688003F7D50BE0FFF774FD89
:101F5000064604E0FFF770FD801B6428F1D828686E
:101F60008003F7D42078DFF8648280074FF0010AFD
:101F70004FF0000939D5686810F00C0F07D0686879
:101F8000C0F38100022809D16868C00306D428681C
:101F9000800714D52069012808D110E02069B0B16C
:101FA000C8F800A0FFF748FD064605E007E1FFF787
:101FB00043FD801B0228C4D828688007F7D528680D
:101FC000616920F0F80040EAC10028600DE0C8F81F
:101FD0000090FFF731FD064604E0FFF72DFD801B62
:101FE000022823D828688007F7D4207800072CD54A
:101FF0007748A169D9B1C0F800A0FFF71DFD0646DA
:1020000004E0FFF719FD801B02280FD8686A8007DB
:10201000F7D570484FF4FA510068B0FBF1F000902A
:1020200000BF0098411E0091FAD20EE07CE0C0F89B
:102030000090FFF701FD064604E0FFF7FDFC801B62
:10204000022871D8686A8007F7D4207840075BD5EA
:10205000E8690027C00008D4E86940F08050E861D2
:10206000E869012700F0805000905B480168C905CD
:1020700011D40168834641F480710160FFF7DCFCF4
:10208000064604E0FFF7D8FC801B64284CD8DBF838
:102090000000C005F6D5E06801280AD008B105287F
:1020A00013D0286A20F001002862286A20F004007A
:1020B00002E0286A40F001002862E06841F2883BB3
:1020C00088B1FFF7B9FC064609E0286A40F0040031
:1020D0002862EEE7FFF7B0FC811B59455BD8286A00
:1020E0008007F7D50BE0FFF7A7FC064604E0FFF7F3
:1020F000A3FC811B59454ED8286A8007F7D41FB12D
:10210000E86920F08050E861E069A8B36968C1F32C
:102110008101022946D00228484606D0C8F860004E
:10212000FFF78AFC044639E035E04746C8F860000E
:10213000FFF782FC064604E0FFF77EFC801B0228C6
:1021400029D828688001F7D4206AB0F5803F05D1EE
:102150006868A16820F4003008436860D4E9080189
:102160000843696821F4741108436860C7F860A0E7
:10217000FFF762FC044605E023E0FFF75DFC001B6F
:10218000022808D828688001F7D51AE0FFF754FC28
:10219000001B022802D90320BDE8F88F28688001BF
:1021A000F4D40EE00128F7D06868226A00F4803188
:1021B000914204D1616A00F47010884201D001207C
:1021C000EAE70020E8E70000001002400000424279
:1021D000800442420C0000200070004070B50400F2
:1021E00009D0606A002540B125616561A56294F857
:1021F000510040B10CE0012070BD6068B0F5827FF5
:10220000F4D0E561F2E784F85050204600F040F841
:10221000022084F851002068016821F0400101602B
:10222000A088218900F4827001F404410843A18947
:1022300001F400610843217C01F002010843217D83
:1022400001F001010843218B01F400710843217F53
:1022500001F03801084394F8201001F08001084390
:10226000218D01F40051084321680860A069042110
:1022700001EA1040216848602068C16921F40061CA
:10228000C1616565012084F85100002070BD000027
:102290002DE9F04385B00024064600940194029491
:1022A000039400683549364D03274FF002088842F1
:1022B00024D1A86940F48050A861A86900F4805036
:1022C0000490A86940F00400A861A869DFF8B49000
:1022D00000F004000490A020CDE9000869460397AF
:1022E0004846FFF7B9FA4020CDE900046946484660
:1022F0000294FFF7B1FA002002F0B6FA22493068E2
:10230000884238D1E86940F48040E861E86900F427
:1023100080400490A86940F00800A861A8690126DF
:1023200000F0080004904FF42040CDE90008DFF8E9
:102330005C8069464046CDE90267FFF78DFAB0033D
:10234000CDE90004694640460294FFF785FAA86982
:1023500040F00800A861A869694600F008000490F0
:102360003003CDE900064046CDE90267FFF774FA75
:10237000002002F093FA05B0BDE8F0830030014080
:10238000001002400008014000380040000C0140ED
:102390004FF0E0210428086903D020F00400086110
:1023A000704740F00400FAE710B5401EB0F1807F9E
:1023B00001D3012010BD4FF0E02460610F216017B0
:1023C00001F062FC0020A06107202061002010BD08
:1023D0007047704710B5040003D094F83D0010B169
:1023E00007E0012010BD002084F83C00204600F0EA
:1023F0001FF8022084F83D00211D206801F060F9DB
:10240000012084F8460084F83E0084F83F0084F8F8
:10241000400084F8410084F8420084F8430084F8C6
:10242000440084F8450084F83D00002010BD000001
:1024300038B5044600682949294D88420FD1A8695A
:1024400040F40060A861A869002200F400600090D8
:1024500001211820FFF75CFB1820FFF74BFB2068D9
:10246000B0F1804F0FD1E86940F00100E861E86900
:10247000002200F00100009002211C20FFF748FB21
:102480001C20FFF737FB1749206888420FD1E86905
:1024900040F00200E861E869002200F002000090CC
:1024A00003211D20FFF734FB1D20FFF723FB0E49FE
:1024B0002068884211D1E86940F00400E861E869C9
:1024C000002200F00400009004211E20FFF720FBF2
:1024D000BDE838401E20FFF70DBB38BD002C014081
:1024E00000100240000400400008004090F83D1039
:1024F000012901D001207047022180F83D100168B8
:10250000CA6842F00102CA6000680B49884208D0DC
:10251000B0F1804F05D00949884202D0084988426D
:1025200004D1816801F00701062903D0016841F058
:102530000101016000207047002C014000040040B0
:10254000000800400168CA6822F00102CA60016800
:102550000A6A41F211131A4207D10A6A9B101A4201
:1025600003D10A6822F001020A60012180F83D10BF
:102570000020704770472DE9F04104460068C668A6
:1025800005694FF00007A90713D5B10711D5F91E4A
:10259000016101202077206880698007204602D0F1
:1025A000FFF7E8FF04E000F07EF8204600F07CF83A
:1025B0002777680716D5700714D521686FF00400D7
:1025C0000861022020772068806910F4407F20464F
:1025D00002D0FFF7CFFF04E000F065F8204600F0DE
:1025E00063F82777280715D5300713D521686FF0D2
:1025F00008000861042020772068C0698007204611
:1026000002D0FFF7B7FF04E000F04DF8204600F0DD
:102610004BF82777E80616D5F00614D521686FF039
:1026200010000861082020772068C06910F4407FFE
:10263000204602D0FFF79EFF04E000F034F8204669
:1026400000F032F82777E80708D0F00706D02168B5
:102650006FF001000861204600F028F8280608D530
:10266000300606D521686FF0800008612046FFF72C
:10267000AFFE680608D5700606D521686FF04000E9
:102680000861204600F02CF8A8060AD5B00608D547
:1026900021686FF0200008612046BDE8F041FFF797
:1026A00098BEBDE8F08170477047000070B50A49D8
:1026B0000446006809680126084D884203D12E802F
:1026C0000548FFF73FFF0449206848310968884200
:1026D00000D16E8070BD0000F808002010000020BE
:1026E0007047704770470000F8B5016804460868F5
:1026F000CA684B6910F00F0F4FF0000559D003F076
:10270000010602F49077374365D0C10705D0D105A3
:1027100003D5616C41F001016164410705D5D9071A
:1027200003D0616C41F002016164810705D5D907CE
:1027300003D0616C41F004016164010707D502F028
:102740002001314303D0616C41F008016164616C88
:1027500000293AD0800604D5900602D5204601F023
:102760001AF820684069616CC0F38010090700D432
:1027700060B3204600F0E8FF20684069400621D59C
:102780002068143050E8001F21F0400140E800129A
:10279000002AF5D1E06BA8B16D494163E06BFEF70B
:1027A000FDFF002811D0E06B416B01B0BDE8F040A7
:1027B000084783060FD593060DD52046BDE8F8409F
:1027C00000F0E9BF2046FFF78DFFF8BD2046FFF778
:1027D00089FF6564F8BD266B2023012E7CD1C606D7
:1027E0007AD5D60678D508684868009048694FF0D1
:1027F0000206400640D5E16B086840680004000C02
:10280000E8D0A28D8242E5D9E085886920282DD0C4
:1028100020680C3050E8001F21F4807140E800125D
:10282000002AF5D12068143050E8001F21F0010182
:1028300040E80012002AF5D12068143050E8001F4B
:1028400021F0400140E80012002AF5D184F842301E
:10285000256320680C3050E8001F21F0100140E88B
:102860000012002AF5D1E06BFEF774FF6663A08DBD
:10287000E18D401A81B22AE0A08DE18D401A81B22B
:10288000E08D0028A6D00029A4D020680C3050E8A4
:10289000002F22F4907240E80027002FF5D1206825
:1028A000143050E8002F22F0010240E80027002FEA
:1028B000F5D184F84230256320680C3050E8002FB1
:1028C00022F0100240E80023002BF5D16663204679
:1028D000FFF707FFF8BDFFE705062BD5150629D53D
:1028E00094F841002128F5D1A068B0F5805F01D1AE
:1028F0002069B0B1206A411C2162216800784860DB
:10290000E08C401E0004000CE084E3D12068C16824
:1029100021F08001C1602068C16841F04001C160C0
:10292000D8E7206A0088C0F308004860206A801C4D
:102930002062E5E74006CDD55006CBD5CA682046D3
:1029400022F04002CA6084F8413000F0EFF8C1E79D
:102950003937000870B5040004D094F84100002510
:1029600010B106E0012070BD84F84050204600F010
:1029700023F8242084F841002068C16821F4005124
:10298000C160204600F068FF2068016921F4904191
:1029900001612068416921F02A0141612068C16814
:1029A00041F40051C1606564202084F8410084F83E
:1029B00042006563002070BD10B500681A4986B0FA
:1029C00088422ED11948816941F0040181618169F1
:1029D00001F004010491816941F4804181618069C1
:1029E000134C00F4804004904FF4007000900220DB
:1029F0000190012002900320039069462046FEF7D3
:102A00002BFF211500910021019169462046FEF718
:102A100023FF2520FFF76EF8032211462520FFF73C
:102A200077F806B010BD00000038014000100240E9
:102A30000008014090F84230202B01D0022070475E
:102A400021B11AB10023036300F084BF0120704755
:102A500000680B49884212D10A480B4B01460278A4
:102A600048881A54401C80B24880FF2801D90020B1
:102A70004880054801220349D838FFF7DBBF70477B
:102A80000038014034000020000F00202DE9F843F9
:102A9000044690F841001F4615460E46202802D0F5
:102AA0000220BDE8F8838EB185B10020606421204A
:102AB00084F84100FEF7C0FFA5848146E584A06844
:102AC0004FF02008B0F5805F02D003E00120E8E776
:102AD000206910B1354600260EE000250CE080216B
:102AE000204600F052FFA0B9BDB115F8010B2168D6
:102AF0004860E08C401EE084E08C4B464FF00002C2
:102B000000970028EBD14FF04001204600F03DFF38
:102B100040B184F841800320C3E736F8020BC0F3CC
:102B20000800E4E784F841800020BAE77047FEE738
:102B300070B51646049C1D46A047012001F06BFDB0
:102B4000B047012001F067FDA847012001F063FDB7
:102B5000A047BDE87040012001F05DBD70B50E4694
:102B6000049C1D46A047012001F055FDB0470120FF
:102B700001F051FDA847012001F04DFDA047BDE83F
:102B80007040012001F047BD2DE9F04108250746BE
:102B900098460024069E8847012001F03CFD0EE087
:102BA0006006040EB047012001F035FD4046804725
:102BB000012001F030FDB84708B144F001046D1E5A
:102BC000EDB2EDD2B047012001F025FD2046BDE871
:102BD000F0812DE9F0470F46DDE9086590469946FA
:102BE000082413E0B047012001F015FD280601D5A7
:102BF000B84701E0404680476806050E012001F015
:102C00000AFD48468047012001F005FD641EE4B23C
:102C1000E8D2B047BDE8F047012001F0FCBC70B538
:102C2000044615461E468847B047012001F0F3FCD4
:102C3000A047002806D0A847012001F0ECFCA047DF
:102C400008B1002070BDA847012001F0E4FC01207C
:102C500070BD70B50E46049815461C46804701208D
:102C600001F0D9FCA847012001F0D5FCA0470120C4
:102C700001F0D1FCB047BDE87040012001F0CBBCB1
:102C80002DE9F0410646069C0D461F46A04701204F
:102C900001F0C1FCA847012001F0BDFCB8470120AC
:102CA00001F0B9FCB04730B1A047012001F0B3FCFE
:102CB0000020BDE8F081A047012001F0ACFC01201C
:102CC000F7E72DE9FC5F07460CA8109C90E8000E82
:102CD0001E461546884600945A46514648460F9B64
:102CE000FFF79DFFCDE900475A46514648460F9BE6
:102CF000FFF76FFF00945A46514648460F9BFFF777
:102D0000BFFFCDE900485A46514648460F9BFFF7A2
:102D100060FF00945A46514648460F9BFFF7B0FFAC
:102D200000945A46514648460F9BFFF778FF7F1C98
:102D3000F8B2CDE900405A46514648460F9BFFF78E
:102D400048FF00945A46514648460F9BFFF798FFAC
:102D500013E000945A46514648460F9BFFF714FF74
:102D6000307000940F9B012D5A465146484609D0B9
:102D7000FFF7DEFE6D1EEDB2761C002DE9D10020BE
:102D8000BDE8FC9FFFF7EAFE00945A4651464846CC
:102D90000F9BFFF75EFFEDE72DE9FE4F80460CA885
:102DA000109C90E8000E002005460290180A8DF84D
:102DB000080016460F468DF8093000945A465146D1
:102DC00048460F9BFFF72BFFCDE900485A46514676
:102DD00048460F9BFFF7FDFE00945A465146484671
:102DE0000F9BFFF74DFFCDE900475A465146484635
:102DF0000F9BFFF7EEFE00945A46514648460F9B44
:102E0000FFF73EFF02AF13E0785D5A46CDE9004080
:102E1000514648460F9BFFF7DCFE00945A46514648
:102E200048460F9BFFF72CFF6D1C761EEDB2F6B2E5
:102E3000002EE9D100945A46514648460F9BFFF7B1
:102E400008FFBDE8FE8F2DE9FC5F9B46DDE90EA47F
:102E5000DDE90C890E460746D5B253464A4641463F
:102E600058460094FFF7DBFECDE9004753464A463B
:102E700041465846FFF7ADFE53464A46414658463E
:102E80000094FFF7FDFECDE9004653464A46414611
:102E90005846FFF79EFE53464A4641465846009420
:102EA000FFF7EEFE53464A4641465846CDE90045F7
:102EB000FFF78FFE53464A46414658460094FFF7B7
:102EC000DFFE53464A46414658460094FFF7C1FE8E
:102ED000BDE8FC9F042100F015B8000010B50446C1
:102EE0000A20FEF7A7FC2046FFF7F4FF43F2323139
:102EF000884200D3002002494988B0FBF1F010BDA0
:102F00007807002030B587B00C46054614220749E3
:102F10006846FDF717F905AB022221462846FFF760
:102F2000D0FEBDF8140007B040BA30BD1411002027
:102F30000A46052100F020B870B50B4C05464FF449
:102F4000D2602080042060800848606040F29D11BB
:102F5000284600F00DF80A20FEF76CFC2188284670
:102F6000BDE87040FFF7E4BF78070020CDCC4C3EB1
:102F70000A460021AFF3008070B586B014460D46B6
:102F80000646142205496846FDF7DCF8234602226E
:102F900029463046FFF700FF06B070BD141100202F
:102FA0008020FFF7C9BF0000012210210148FEF771
:102FB0003EBD000000080140002210210148FEF73C
:102FC00036BD000000080140012208210148FEF73B
:102FD0002EBD00000008014008210148FEF722BD77
:102FE00000080140002208210148FEF720BD000032
:102FF00000080140F0B5224885B0816941F0080120
:103000008161816901F008010491816941F0080141
:103010008161816901F008010491816941F0080131
:103020008161816901F008010491816941F0080121
:1030300081618069002400F0080004904FF4805002
:10304000012503268DE871000E4F69463846FEF7CC
:1030500003FC68038DE8710069463846FEF7FCFB07
:10306000A8038DE8710069463846FEF7F5FBE803D2
:103070008DE8710069463846FEF7EEFB05B0F0BDFD
:1030800000100240000C014000F04ABAFEB50024D6
:103090001C480094019402941949846001600473EF
:1030A0000475012505614FF460264460C0E90646B9
:1030B000FEF780F91348FEF78FF80820CDE90005E8
:1030C000694602940F48FEF7F3F80E480E49303077
:1030D000846001600473047505614460C0E90646BC
:1030E000FEF768F907483030FEF776F80920CDE999
:1030F00000050448694602943030FEF7D9F8FEBD59
:1031000000240140900700200028014010B500F085
:10311000F5F8FFF76FFFFDF7D7FFFDF7B7FFFFF7F4
:103120003FFFFDF703FFBDE8104000F0C9B8000005
:10313000F0B5374C85B0A06940F00400A061A069EB
:1031400000F004000490A06940F00800A061A069AC
:1031500000F008000490A06940F01000A061A06990
:1031600000F010000490A06940F00400A061A06984
:10317000012500F0040004901020CDE9000503268D
:10318000244FCDE9025669463846FEF765FBA06933
:1031900040F00400A061A069112400F00400049034
:1031A0000820CDE9000469463846FEF755FB1B4F61
:1031B0001948F8601A4838611A4878601A48B860A7
:1031C0001A483860FFF7F0FE78688047A803CDE919
:1031D0000005CDE90256164D69462846FEF73CFB30
:1031E0006914CDE9001469462846FEF735FB124CF8
:1031F0001048E06011482061114860601148A060EB
:103200001148206001F008FB6068804705B0F0BD00
:103210000010024000080140A92F000814110020EE
:10322000B92F0008C92F0008E52F0008D92F000882
:10323000001001401948000800110020294800082A
:1032400039480008594800084948000838B514486A
:10325000C16941F48041C161C069134C00F48040F0
:103260000090104820604FF48270606000200221BE
:10327000A060C4E90301012161614902A161382113
:10328000C4E907106062A0620720E0622046FEF7F2
:10329000A5FF2068016841F04001016038BD0000D1
:1032A000001002400038004048080020FFF7CEBF61
:1032B00042F2273141F63F7000F0DAB9FEE7FEE74F
:1032C0000020AFF3008070B50646002505F1B00080
:1032D000C0B200F0A5FC002000F0A2FC102000F01D
:1032E0009FFC0024304600F0ABFC641CE4B2802C50
:1032F000F8D36D1CEDB2082DE8D370BD10B5AE202B
:1033000000F08EFC202000F08BFC102000F088FCE8
:10331000B02000F085FCC82000F082FC002000F006
:103320007FFC102000F07CFC402000F079FC812024
:1033300000F076FCFF2000F073FCA12000F070FC90
:10334000A62000F06DFCA82000F06AFC3F2000F0F1
:1033500067FCA42000F064FCD32000F061FC002096
:1033600000F05EFCD52000F05BFCF02000F058FC83
:10337000D92000F055FC222000F052FCDA2000F0A9
:103380004FFC122000F04CFCDB2000F049FC202018
:1033900000F046FC8D2000F043FC142000F040FCBF
:1033A000BDE81040AF2000F03BBC10B50446B03182
:1033B000C8B200F035FC102040EA141000F030FCD8
:1033C00004F00F00BDE8104040F0010000F028BC00
:1033D0002DE9F0471E468846814600255401FFF737
:1033E000E4FF114F012E385D01D1C043C0B200F09F
:1033F00027FC6D1CEDB2641C102DF3D308F1010005
:10340000C1B24846FFF7D1FF0025385D012E01D13A
:10341000C043C0B200F014FC6D1CEDB2641C102D52
:10342000F3D3BDE8F0870000380000202DE9F05FFD
:103430000026DFF8E4A0DDF828909346884605468C
:10344000012B26D00AF50A7A022B26D15FE020381C
:10345000C7B27E2D04D908F10100002500F0FF0855
:1034600041462846FFF7A1FF07EB470000240AEB7F
:103470004007B9F1010F385D01D1C043C0B200F07F
:10348000DFFB641CE4B2062CF3D3AD1D761CEDB259
:10349000F6B21BF806000028D9D1BDE8F09F20380D
:1034A000C7B2782D04D908F10100002500F0FF080B
:1034B00041462846FFF779FF002404EB0711B9F1D4
:1034C000010F1AF8010001D1C043C0B200F0B8FBEF
:1034D000641CE4B2082CF0D308F10100C1B2284604
:1034E000FFF763FF002404EB071101EB0A00B9F1B9
:1034F000010F007A01D1C043C0B200F0A1FB641CEF
:10350000E4B2082CEFD30835761CEDB2F6B21BF806
:1035100006000028C3D1C0E70C490008704700002E
:1035200070B5002001F090F850B30025174C012829
:103530000ED0211D022815D003281AD0042806D148
:10354000E078401CC0B2E070FF2800D3E57070BD89
:103550002078401C2070FFF7B3FE2078FF28F6D3B8
:10356000257070BD4878401C48706078401C6070C1
:1035700070BDA078401CA0708878401C887070BD19
:10358000BDE870400A2001F039B800002C0000208E
:10359000F8B500270C4605460097FCF7F7FD002814
:1035A00020D0FDF727FB21462846FCF7EFFD044617
:1035B0006E4609E070556D1C14F8010FEDB20D2830
:1035C00007D00A2001F01AF82078A0F1300109296B
:1035D000F0D977556846FCF7FCFDB0F57A7F02D24A
:1035E000401C80B2F8BD0020F8BD7047FEF72ABA33
:1035F00070B594B0064628216846FCF7BCFD14213E
:103600000AA8FCF7B8FD00240F9401200090109444
:10361000119412940004CDE9010402250996CDE924
:1036200007506846FEF74EFC00B1FEE70F20CDE9DB
:103630000A054FF48060CDE90C4002210AA80E94DF
:10364000FEF75EFB00B1FEE74FF4004011900F95CE
:103650000FA8FEF7E1FA002801D0FDF715FD14B020
:1036600070BD70470148FEF786BF0000400900208A
:1036700030B585B00C46054614216846FCF77BFD45
:10368000084A4FF0804000231060C2E90143C2E9BC
:10369000035310469361FEF79DFE0248FEF726FF96
:1036A00005B030BD400900200148FEF764BF0000AE
:1036B000880900200148FEF75EBF0000D009002005
:1036C000F0B50268194C1A4D1A4E4FF08047A042CF
:1036D00005D0B84203D0A84201D0B04203D122F0B5
:1036E00070034A681A43A04205D0B84203D0A842EA
:1036F00001D0B04203D122F44073CA681A434B6927
:1037000022F080021A4302608A68C2620A688262FA
:10371000A04201D109690163012141610169C90721
:1037200003D0016921F001010161F0BD002C0140CD
:10373000000400400008004010B5406A0021C18527
:10374000C184FEF7CFFF10BD01680C3151E8002F96
:1037500022F4907241E80023002BF5D10168143166
:1037600051E8002F22F0010241E80023002BF5D19F
:10377000016B012909D101680C3151E8002F22F0B9
:10378000100241E80023002BF5D1202180F84210DF
:1037900000210163704708B590F84210222901D03A
:1037A000022008BD81684FF48053994201D102691B
:1037B00022B1826A99421BD049B10AE00268816A4B
:1037C0005268C2F308020A80816A891C08E0016914
:1037D00071B10168496801F07F011170816A491C6B
:1037E0008162C18D491E0904090CC18503D01BE00B
:1037F00001684968F1E70168CA6822F02002CA60DE
:103800000168CA6822F48072CA6001684A6922F0BD
:1038100001024A61202180F8421000214163026BBD
:10382000012A03D0FFF714F9002008BD01630168E5
:103830000C3151E8002F22F0100241E80023002B48
:10384000F5D101680A68D20602D50A684968009174
:10385000818DFEF746FFE7E770B504460068016911
:10386000E26821F4405111430161A16820690143DC
:10387000606901432068C26841F20C639A430A43BD
:10388000C26020684169A26921F44071114341611D
:103890001E492068884202D1FEF7DEFA01E0FEF7F9
:1038A000CBFA00EBC00101EB0011606864228000DC
:1038B000B1FBF0F3B3FBF2F36FF018067343B1FB07
:1038C000F0F5B1FBF0F605EB8305322303EB0515AC
:1038D000B5FBF2F5B6FBF2F605F0F00505EB0615C3
:1038E000B1FBF0F6B1FBF0F0B0FBF2F06FF01801B5
:1038F000484306EB800003EB0010B0FBF2F02168B8
:1039000000F00F002844886070BD000000380140BE
:1039100010B50E4C0C49C4E900100020A0600C2129
:10392000E060C4E90401A0612046FFF713F82068B5
:10393000C16841F02001C1602046BDE8104001226D
:103940000349FFF777B8000000380140280E002037
:103950003400002081628285C285002141642221D9
:1039600080F84210016921B10168CA6842F480728E
:10397000CA6001684A6942F001024A610068C16890
:1039800041F02001C160002070472DE9F8431F4637
:1039900090460D460446089E23E0701C21D0FEF799
:1039A0004BF8C01BB0421AD8CEB12068C168490795
:1039B00017D5802D15D0402D13D00168C9430907B4
:1039C0000FD401680025406800902046FFF7BCFE38
:1039D0000820606484F840500120BDE8F88303208B
:1039E000FBE72068006835EA000004D0002040456D
:1039F000D3D00020F1E70120F9E700000148FEF7ED
:103A000073BE0000280E00200A4601464FF6FF73E1
:103A10000148FFF73BB80000280E00200148FEF7E0
:103A200063BE0000700E00200148FEF75DBE00007E
:103A3000B80E00204FF4E13002461146FFF768BF90
:103A4000FEE7000010B50020FDF750FA040030D06A
:103A500018A1FFF79DFD78B11848007860B91849A2
:103A6000087810B300200870164B4FF48051F0B165
:103A700001221846FDF7DBFF13A12046FFF788FD62
:103A800038B1401EFCF77AFC1149FCF739FC1149AA
:103A9000086011A12046FFF77BFD10B11149401EBF
:103AA0000880BDE81040FDF713BA0120DBE70022D3
:103AB000DFE710BD6C6F61643A0000001800002061
:103AC0001900002000080140766F6C4D61783A00C3
:103AD000000020412000002063757272656E744DF5
:103AE00061783A001C00002000B5C1B00020FDF74D
:103AF000FDF9184900228888401C80B2888005287A
:103B000003D38A800120087002E0087800281ED0C4
:103B10000A70FC2101A8FCF72EFB10480E49006832
:103B2000FCF7BCFBFCF738FC82B20D480EA1007814
:103B300000900C48038801A800F092F801A8FCF757
:103B400041FB81B201A8FDF767FAFDF7C1F941B069
:103B500000BD000084070020000020412400002058
:103B6000180000201E000020766F6C7461676525C8
:103B700032642063757272656E74253464207761D7
:103B8000726E696E67466C616725326400000000E2
:103B90002DE9F0470D46096816464FF0000A8946A0
:103BA00088460A2A00D8142695F8C81045F821003E
:103BB00095F8C800401CC0B285F8C800B04202D3D6
:103BC000002085F8C800002417E055F824705046FE
:103BD0003946FCF70BFB824649463846FCF70EFC9B
:103BE00001D255F8249055F824004146FCF7FCFB1F
:103BF00001D255F82480641CE4B2B442E5D3B01E6F
:103C0000FCF7BCFB044649465046FCF741FB4146E5
:103C1000FCF73EFB2146BDE8F047FCF771BB000016
:103C20007FB5064902460B1D782078CB8DE87800D9
:103C30000B680021FFF707F97FBD0000001100208D
:103C40007FB5064902460B1D782078CB8DE87800B9
:103C50000B684021FFF7F7F87FBD0000001100203E
:103C60000FB4084B10B504A902AA039800F0F2F8AB
:103C7000044602A9002000F084FC204610BC5DF838
:103C800014FB0000834500080907090E002804DB27
:103C900000F1E02080F80014704700F00F0000F100
:103CA000E02080F8141D7047004870478C07002002
:103CB00002E008C8121F08C1002AFAD170477047F5
:103CC000002001E001C1121F002AFBD17047000053
:103CD0002DE9FF5F82B00021DDE90430020DDDF83F
:103CE00040B0034318D044F61050A2F2FF324243D2
:103CF0001514119801281FD0A5EB0B00401C5FEA9A
:103D0000000A4FF000064E4FDFF83891B04650469B
:103D100015D5CAF1000413E0119801244AA3012823
:103D200001D16FEA0B010298119AC0E90031C0E994
:103D3000024206B0BDE8F09FCBF10000DFE7044689
:103D40000021404A491842EB0450CDE9001012E02E
:103D5000E00707D032463B4640464946FCF7B5FCF3
:103D60008046894632463B4610461946FCF7ADFC74
:103D700006460F466410002CEAD1DDE90401DDE9B6
:103D80000023BAF1000F06DAFCF79FFC42464B46CF
:103D9000FCF79BFC05E0FCF70AFD42464B46FCF7AE
:103DA00006FD04460E460022284BFCF787FD03D88B
:103DB0004FF0FF30014607E00022254B20463146F8
:103DC000FCF7DCFBFCF762FD102409E0002C0ADBA9
:103DD0000A220023FCF732FB039B30321A55641E83
:103DE00050EA0102F2D1641C039AC4F11103144495
:103DF000119A012A03D0012208430DD10AE0084399
:103E000004D000204FF0110B119072E7A3EB0B05CB
:103E10006D1E0DE05B4504DD4FF0000205F101056C
:103E200004E003DA4FF00002A5F10105002AECD00E
:103E300002981199C0E90231C0E9004579E7000014
:103E4000000014400000F03F300000000000F0438C
:103E50000000E03F2DE9FF4F95B09B46894606469E
:103E600000250FE2252877D100242746F84A0121B2
:103E7000059400E0044316F8013F203B01FA03F0EB
:103E80001042F7D130782A2811D06FF02F03307804
:103E9000A0F13002092A16D8059A44F0020402EB78
:103EA000820203EB42021044761C0590EFE759F8BA
:103EB000042B0592002A03DA504244F40054059082
:103EC00044F00204761C30782E2816D116F8010F23
:103ED00044F004042A280DD06FF02F023078A0F1AE
:103EE0003003092B09D807EB870302EB4303C718FC
:103EF000761CF3E759F8047B761C30786C280FD0D9
:103F000006DC4C2817D068280DD06A2814D104E0AC
:103F1000742810D07A280FD10DE044F400140AE080
:103F200044F4801401E044F440147278824202D1D7
:103F300004F58014761C761C307866280BD013DCD0
:103F4000582877D009DC002875D04528F6D04628B7
:103F5000F4D047281AD19DE118E0632835D06428B1
:103F600079D0652812D195E1702873D008DC6728D4
:103F7000F1D069286FD06E280DD06F2806D1B5E03A
:103F800073282CD0752875D0782874D05A46179984
:103F900090476D1C75E1C4F30250022809D0032834
:103FA0000DD0D9F8001004280DD00D6009F10409D6
:103FB00067E1D9F80010EA17C1E90052F6E7D9F82D
:103FC00000100D80F2E70D70F0E719F8041B8DF872
:103FD000001000208DF80100EA46012003E059F8A6
:103FE00004AB4FF0FF3061074FF0000102D40DE049
:103FF00008F101018846B9420FDA8045F8DB1AF86A
:1040000008100029F4D108E008F101018846814236
:10401000FADB1AF808100029F6D105985B46A0EBE8
:10402000080721463846179A00F094FA284400EB16
:10403000080507E04DE029E10DE01AF8010B5A46AA
:1040400017999047B8F10108F7D25B4621463846E8
:10405000179A13E142E00A220092C4F302524FF091
:10406000000A022A08D059F804CB032A4FEAEC715F
:104070000AD00DE029E02AE009F1070121F007024A
:10408000F2E802C1914609E00FFA8CFC4FEAEC71AC
:10409000042A03D14FFA8CFC4FEAEC71002907DAAD
:1040A0000A460021DCF1000C61EB02012D2202E046
:1040B000220504D52B228DF80420012203E0E2071B
:1040C00001D02022F7E7904659E00A2102E01022B1
:1040D0000DE010214FF0000A00910BE010224FF08C
:1040E000000A44F004040827009203E008224FF07D
:1040F000000A0092C4F30252022A05D059F804CBF8
:104100000021032A08D009E009F1070121F0070284
:10411000F2E802C1914605E01FFA8CFC042A01D1A5
:104120000CF0FF0C4FF00008220728D5702806D0AD
:10413000009B83F0100353EA0A0305D00EE04022EF
:104140008DF80420012208E05CEA010206D030224A
:104150008DF804208DF8050002229046009B83F024
:10416000080353EA0A030AD15CEA010201D162079B
:1041700005D530228DF804204FF001087F1E582805
:1041800004D034A003900EA802900DE036A0F9E709
:1041900053466046009AFCF751F984460398825CC6
:1041A0000298401E029002705CEA0100F0D1029871
:1041B00006A9081A00F1200A600702D524F4803409
:1041C00000E00127574502DDA7EB0A0000E00020D0
:1041D00000EB0A01009005984144401A0590E00365
:1041E00006D45B462146179A059800F0B3F90544BA
:1041F000002706E001A85A46C05D179990476D1C3C
:104200007F1C4745F6DBE0030CD55B462146179A39
:10421000059800F09FF9054404E030205A461799AC
:1042200090476D1C0099481E00900029F5DC08E0BD
:10423000029802995A460078491C029117999047B2
:104240006D1CBAF10001AAF1010AF1DC65E1000080
:10425000092801003031323334353637383961625C
:104260006364656600000000303132333435363720
:1042700038394142434445460000000000F058F9F7
:104280000544761C307800287FF4ECAD19B0284640
:10429000BDE8F08F620700D4062709F1070222F07B
:1042A000070CFCE80223E14603F000485FEA080C33
:1042B00002D00FF2702C0DE05FEA045C02D50FF221
:1042C000682C07E05FEAC47C02D00FF2602C01E0AA
:1042D000AFF2700C4FF0FF3823F00043CDF850C020
:1042E00065280CD006DC452809D046281DD0472873
:1042F0003DD13DE0662818D067287ED138E0002106
:10430000112F01DB112000E0781CCDE9000106A986
:104310000EA8FFF7DDFCDDE90F010E9A03910021E5
:10432000009207F1010A04914DE04FF00040009720
:10433000CDE9011006A90EA8FFF7CAFCDDE90F02BE
:1043400003920E9B11990022DDF80CA000930492B9
:1043500011B9791C00EB010AB7EB0A0004D4C0F1D3
:10436000FF3007F1010A0490AAEB0700019044E036
:10437000012F00DA01270021112F01DD112000E0BB
:104380003846CDE9000106A90EA8FFF7A1FCDDE93A
:104390000F010E9A0391002104910092BA46210761
:1043A0000CD40399514500DA8A46BAF1010F05DDB4
:1043B000009AAAF10101515C302908D0B84202DA12
:1043C00010F1040F06DA0121CDE9011015E0AAF180
:1043D0000101E9E7002805DC049901440491AAEBF6
:1043E000000102E0411C514500DD8A460499401A53
:1043F000401C01904FF000400290200704D4019827
:10440000504501DBCDF8048000208DF84F00029864
:104410000DF14F07B0F1004F25D02B200E900298E0
:104420004FF0020800280CDA404202902D200E9036
:1044300007E00A210298FBF7EBFF3031029007F802
:10444000011DB8F10001A8F10108F2DC0298002872
:10445000EFD1791E0E980870307800F0200040F0FF
:10446000450007F8020D12A8C01B00F107081498B8
:10447000007800B1012000EB0A01019801EBE07126
:1044800005984144401A401E0590E00306D45B465F
:104490002146179A059800F05DF8054414980078B5
:1044A00018B15A46179990476D1CE00324D55B4616
:1044B0002146179A059800F04DF805441CE0049831
:1044C000002807DBDDE90301884203DD0098405C3A
:1044D000179901E0179930205A469047049805F142
:1044E0000105401C04900198401E019004D12E202B
:1044F0005A46179990476D1CBAF10001AAF1010ABA
:10450000DDDC05E017F8010B5A46179990476D1C42
:10451000B8F10001A8F10108F4DC5B462146179AC6
:104520000598ABE62D0000002B00000020000000E5
:104530002DE9F041044600251E461746880404D4A0
:1045400005E039462020B0476D1C641EF9D5284689
:10455000BDE8F0812DE9F041044600251E46904655
:10456000C80301D5302700E02027880404D505E0E2
:1045700041463846B0476D1C641EF9D52846BDE853
:10458000F0810A68531C0B601070704770B5144DB1
:10459000687800281CD0A5F11804291F114BA068C9
:1045A000002603220978984205DAB1FBF2F302FBF8
:1045B0001313012B0DD0A088B0F5486F08D2B1FBC2
:1045C000F2F302FB1311022902D10A30A0806E70AF
:1045D00070BD4FF07C51FBF709FEA060F7E70000CB
:1045E000300000200000C84110B504460420FDF74B
:1045F000CFFE0148046010BD1400002070B50546D0
:1046000000244FF47A7603E0304600F004F8641C8E
:10461000AC42F9D370BD70B54FF0E024002163695E
:1046200000EBC000A269C500A0699042FCD002D294
:10463000A2EB000202E0A3EB000632441144024662
:10464000A942F1D370BD00002DE9F05F00242F4D89
:104650002F4E01274FF480584FF400594FF4804AF1
:104660004FF4004B08B1AF7001E0A87898B1414613
:104670003046FDF7D7F9A8B149463046FDF7D2F9E3
:1046800080B151463046FDF7CDF958B15946304614
:10469000FDF7C8F930B141463046FDF7C3F90128AE
:1046A0001ED030E00A20FFF7A9FF0020A870414685
:1046B0003046FDF7B7F900B9012449463046FDF709
:1046C000B1F900B9022451463046FDF7ABF900B903
:1046D000032459463046FDF7A5F9A0B9042412E099
:1046E00049463046FDF79EF901280CD15146304627
:1046F000FDF798F9012806D159463046FDF792F9A1
:10470000012800D1AF702046BDE8F09F18000020BE
:10471000000C0140FDF79EF94FF4E010FEF768FF32
:104720004820FFF761FFFEF703FDFFF783F9FEF76F
:10473000ADFCFEF7BBFDFEF7BBFDFEF7E7FCFFF7A8
:10474000D3F9FFF77FF9FEF79FFCFFF71FFFFEF796
:104750009BFC00F00DF8FEF797FCFCF72FFBFEF733
:1047600093FCFCF7ABFAFEF78FFCFCF759FAE6E78F
:104770002DE9F041264E03274FF000083078A6F1CE
:104780001404B0FBF7F107FB1100351DB8B9D4E9EB
:104790000210FBF733FE12D2E088A18888420ED2C5
:1047A000A87860B16078B8B100221A4862704FF4FE
:1047B000805102B10122FDF73AF985F80280A06824
:1047C0004FF07C51884210DD3278B2FBF7F307FBE3
:1047D0001322012A02D008E00122E6E7AA7822B1DA
:1047E000FBF756FDA06085F80280A0880A280DD945
:1047F0003178B1FBF7F207FB1211022906D1A97833
:10480000002903D00A38A08085F80280BDE8F08135
:104810002C00002000080140012291030148FDF70F
:1048200006B900000010014000224FF48041014809
:10483000FDF7FDB800100140012251030148FDF7CA
:10484000F6B80000001001404FF400510148FDF798
:10485000E9B800000010014000224FF40051014867
:10486000FDF7E5B8001001400B4A10B511680B6860
:1048700023F040030B6011680B684FF6C7742340A8
:104880000B6011680B6843EAC0000860106801689B
:1048900041F04001016010BDF00700200B4A10B547
:1048A00011680B6823F040030B6011680B684FF62A
:1048B000C77423400B6011680B6843EAC0000860AE
:1048C0001068016841F04001016010BD48080020F7
:1048D000010202030405060708090A0B0C0D0E0F5E
:1048E0001010010202030405060708090A0B0C0D4B
:1048F0000E0F101000000000000000000102030471
:10490000060708090000000001020304000000007F
:1049100000000000002F0000000007000700001446
:104920007F147F1400242A7F2A1200626408132354
:1049300000364955225000000503000000001C22EB
:104940004100000041221C000014083E0814000829
:10495000083E0808000000A06000000808080808D9
:10496000000060600000002010080402003E514971
:10497000453E0000427F400000426151494600210F
:1049800041454B31001814127F1000274545453929
:10499000003C4A4949300001710905030036494984
:1049A000493600064949291E00003636000000003D
:1049B0005636000000081422410000141414141488
:1049C0000000412214080002015109060032495931
:1049D000513E007C1211127C007F49494936003E4D
:1049E00041414122007F4141221C007F4949494108
:1049F000007F09090901003E4149497A007F080802
:104A0000087F0000417F4100002040413F01007FBE
:104A100008142241007F40404040007F020C027F8A
:104A2000007F0408107F003E4141413E007F09099C
:104A30000906003E4151215E007F091929460046C2
:104A4000494949310001017F0101003F4040403F99
:104A5000001F2040201F003F4038403F00631408E3
:104A600014630007087008070061514945430000BE
:104A70007F41410000552A552A55000041417F00E1
:104A800000040201020400404040404000000102D6
:104A90000400002054545478007F484444380038BF
:104AA0004444442000384444487F00385454541847
:104AB00000087E0901020018A4A4A47C007F080459
:104AC00004780000447D4000004080847D00007F29
:104AD000102844000000417F4000007C0418047846
:104AE000007C0804047800384444443800FC242442
:104AF00024180018242418FC007C0804040800482A
:104B00005454542000043F444020003C4040207C4A
:104B1000001C2040201C003C4030403C0044281039
:104B20002844001CA0A0A07C004464544C441414ED
:104B30001414141400000000000000000000000025
:104B400000000000000000F800000000000000333A
:104B50003000000000100C06100C060000000000E1
:104B60000000000040C07840C0784000043F0404CA
:104B70003F040400007088FC08300000001820FF8B
:104B8000211E0000F008F000E018000000211C03C6
:104B90001E211E0000F00888700000001E21232442
:104BA0001927211010160E00000000000000000060
:104BB00000000000000000E01804020000000007F0
:104BC0001820400000020418E000000000402018F7
:104BD00007000000404080F0804040000202010FCA
:104BE00001020200000000F0000000000101011FAE
:104BF00001010100000000000000000080B0700012
:104C000000000000000000000000000000010101A1
:104C10000101010100000000000000000030300030
:104C2000000000000000000080601804006018060A
:104C30000100000000E010080810E000000F102044
:104C400020100F00001010F8000000000020203F8E
:104C50002020000000700808088870000030282418
:104C600022213000003008888848300000182020B9
:104C700020110E000000C02010F8000000070424DE
:104C8000243F240000F80888880808000019212023
:104C900020110E0000E0108888180000000F11207D
:104CA00020110E0000380808C83808000000003F36
:104CB000000000000070880808887000001C222195
:104CC00021221C0000E010080810E0000000312242
:104CD00022110F00000000C0C000000000000030E2
:104CE0003000000000000080000000000000806034
:104CF00000000000000080402010080000010204B5
:104D0000081020004040404040404000040404049B
:104D10000404040000081020408000000020100857
:104D200004020100007048080808F000000000308C
:104D300036010000C030C828E810E000071827241A
:104D400023140B000000C038E0000000203C2302C8
:104D50000227382008F8888888700000203F20202B
:104D600020110E00C030080808083800071820205D
:104D70002010080008F808080810E000203F202054
:104D800020100F0008F88888E8081000203F202035
:104D90002320180008F88888E8081000203F200029
:104DA00003000000C0300808083800000718202061
:104DB000221E020008F808000008F808203F210120
:104DC00001213F20000808F8080800000020203FCB
:104DD0002020000000000808F8080800C08080803B
:104DE0007F00000008F888C028180800203F200134
:104DF0002638200008F8080000000000203F20208E
:104E00002020300008F8F800F8F80800203F003FA4
:104E1000003F200008F830C00008F808203F2000BC
:104E200007183F00E01008080810E0000F102020CD
:104E300020100F0008F808080808F000203F2101A2
:104E400001010000E01008080810E0000F182424F9
:104E500038504F0008F8888888887000203F20006C
:104E6000030C302000708808080838000038202122
:104E700021221C00180808F8080818000000203F2C
:104E80002000000008F808000008F808001F202093
:104E900020201F000878880000C838080000073864
:104EA0000E010000F80800F80008F800033C0700B5
:104EB000073C0300081868808068180820302C031D
:104EC000032C30200838C800C83808000000203FF4
:104ED0002000000010080808C838080020382621E3
:104EE00020201800000000FE020202000000007FE7
:104EF00040404000000C30C00000000000000001F5
:104F00000638C00000020202FE00000000404040DF
:104F10007F00000000000402020204000000000004
:104F20000000000000000000000000008080808081
:104F30008080808000020204000000000000000069
:104F40000000000000008080808000000019242202
:104F500022223F2008F8008080000000003F11203E
:104F600020110E000000008080800000000E112043
:104F700020201100000000808088F800000E112021
:104F800020103F200000808080800000001F22222F
:104F900022221300008080F0888888180020203F9B
:104FA000202000000000808080808000006B9494AE
:104FB0009493600008F8008080800000203F21006A
:104FC00000203F2000809898000000000020203F33
:104FD00020200000000000809898000000C0808021
:104FE000807F000008F8000080808000203F2402BD
:104FF0002D302000000808F8000000000020203FAD
:10500000202000008080808080808000203F200061
:105010003F20003F8080008080800000203F2100F2
:1050200000203F200000808080800000001F2020A2
:1050300020201F00808000808000000080FFA120D1
:1050400020110E000000008080808000000E1120E2
:1050500020A0FF80808080008080800020203F2171
:105060002000010000008080808080000033242424
:1050700024241900008080E0808000000000001FD0
:10508000202000008080000000808000001F202081
:1050900020103F20808080000080808000010E3042
:1050A0000806010080800080008080800F300C03A3
:1050B0000C300F0000808000808080000020312EA6
:1050C0000E312000808080000080808080818E7082
:1050D0001806010000808080808080000021302C34
:1050E0002221300000000000807C0202000000004D
:1050F000003F404000000000FF00000000000000F2
:10510000FF0000000002027C800000000040403FE1
:10511000000000000006010102020404000000007B
:1051200000000000004040404040404040404141BD
:10513000414141404040404040404040404040406C
:105140004040404040050202020202020202020206
:105150000202020202202020202020202020200203
:105160000202020202029090909090901010101093
:10517000101010101010101010101010101010102F
:1051800002020202020288888888888808080808C3
:10519000080808080808080808080808080808088F
:1051A000020202024000000025510008CC51000814
:1051B0000000002090070000D00A0008605300089B
:1051C0009007002068140000C03C000832018210E3
:1051D000B3127A120152B4031620401BF888012A38
:1051E000FF0552F81B1F08012A7F10349F80F01C16
:1051F000FE0282012AFA051382022D80601F4001FF
:105200002F7F404044584053091C40151060028CC9
:10521000100B4464544D46445464C40418080404F8
:105220007E0180403E5721147E80E015404042CCF4
:105230001C40A09E5D459EA02020200D3F908840F0
:10524000432C10284641808018081715D55557550E
:105250007D0424D51517297B4A550119830920801F
:105260004E202020BEAA011ABE0C211C8080AF0C4B
:105270001AFF042AAF5F192C1AF8041F1010FF1030
:105280001010EF300F1030101F088848300E01400A
:1052900080403F180E14A4442434AD662494044482
:1052A000A41430180B090808090909FD09090B099C
:1052B00022081798A4CACAA49812071D4F78784FDD
:1052C0000701FF01711798A4CACAA49812071D4FBD
:1052D00078784F0701FF01701808E03050901E13D6
:1052E0001101180E131E905030E07FC0A0908986E7
:1052F000890107FF868990A0C07F01651C80C0409E
:10530000015DC08080C0102A80100B1480801F1D9A
:105310003E7FE1C00D3133030765F0FC0F011D0135
:105320000FFCE01F1C3F61C020291F520F1AE00C28
:10533000200A0101030307061EFCF05B1FFF662124
:105340008CC0FF3F1F4A061F312D0F060408013C89
:105350000C06035A4A03100C130406031F01D6005F
:04000005080000ED02
:00000001FF
